:100000004CC086C265C064C063C062C061C060C0CD
:100010005FC05EC05DC05CC05BC05AC059C058C004
:1000200057C056C055C054C053C052C051C050C034
:100030004FC04EC0040309041E0374007200610027
:100040006E0073006D00610067006E006500740053
:100050006900630073002003620072007500730082
:1000600068006C006500730073005F006D006F0036
:1000700074006F00720012011001FF000008C0162A
:10008000DD050001010200010902120001010080EA
:100090000A09040000000000000011241FBECFEF79
:1000A000D4E0DEBFCDBF11E0A0E0B1E0E4E4F8E0D1
:1000B00002C005900D92AE30B107D9F712E0AEE064
:1000C000B1E001C01D92A636B107E1F7CCD0B8C3AC
:1000D00097CF0895089508950895089508950F936A
:1000E0001F93DF93CF93CDB7DEB72B970FB6F8945E
:1000F000DEBF0FBECDBF8B01833089F0843038F472
:10010000813009F46DC0823009F086C05CC0853052
:1001100089F18530E8F0863009F07EC043C0DDDF2C
:10012000F80180812181D80190E0FC01E45EFE4F5E
:10013000AC01420F511D9A01245E3E4F04C011963E
:100140008C91119781931196E217F307C1F764C060
:10015000C5DFF80151818081A82FB0E0A45EBE4FB9
:10016000402FF80102C08D9181938E2F841B85173B
:10017000D0F352C0FB0180812181DB0190E0FC01C2
:10018000E456FE4FAC01420F511D9A0124563E4FDA
:1001900004C011968C91119781931196E217F30781
:1001A000C1F73AC0FB0151818081A82FB0E0A4566D
:1001B000BE4F462FFB0102C08D9181938E2F841B71
:1001C0008517D0F329C0DE011196E0E0F1E085E06B
:1001D00001900D928150E1F789818823F1F71AC0CF
:1001E000DE011696E5E0F1E086E001900D92815087
:1001F000E1F7FE013696D8019E012A5E3F4F8081CD
:100200008C938181882341F031961196E217F30790
:10021000B1F702C0F80110822B960FB6F894DEBF3A
:100220000FBECDBFCF91DF911F910F910895FC01BB
:100230008EE091E090932B0280932A028081807659
:1002400039F08181813011F0893011F48FEF0895F8
:1002500080E00895B2D281E008951F93162F93D2C3
:10026000812F1F910895F89434DF2EE088E190E00B
:100270000FB6F894A895809360000FBE209360009D
:1002800012D0539A26E948E853E104C0CA01019705
:10029000F1F7A8952150D0F746D2539878940AD018
:1002A000A89547D2FCCFE9E6F0E0808182608083A8
:1002B000E89A08951F93CF93DF9360912C026350C7
:1002C00067FDA3C080912902CCE0D0E0C81BD10912
:1002D000C05DDD4F809128028D3209F084C0683006
:1002E00009F091C083EC80931C028AE580930B0196
:1002F000109216018881807639F0CE0198DF282F80
:100300008F3F09F45FC065C09A81109225028981F0
:10031000882321F41092260222E04DC0853019F482
:1003200090932D0247C08630B1F58B81813019F44E
:1003300086E790E004C0823041F488E890E0909332
:100340002B0280932A0222E122C08330F9F48A81B1
:10035000882341F484E390E090932B0280932A0257
:1003600024E015C0813041F488E390E090932B02A3
:1003700080932A022EE10BC0823041F486E590E0A2
:1003800090932B0280932A0220E201C020E080E4B7
:10039000809316011EC0883021F421E08FE292E0A4
:1003A0000CC0893019F490932F0204C08A3011F4E4
:1003B00021E001C020E085E292E090932B0280933F
:1003C0002A0207C0888187FD2E8180E8809316016C
:1003D00006C08F81882319F48E81821708F0822F3E
:1003E00080930C0110C08091160187FF0CC0CE01D4
:1003F00031DF8F3F21F48EE180930B0104C088230D
:1004000011F010920C0110922C0280910B0184FFCC
:1004100058C080910C018F3F09F453C0182F8930C8
:1004200008F018E0811B80930C0180911C0298E871
:10043000892780931C02112391F18091160187FF77
:1004400008C08DE192E0612F08DF182F893098F500
:1004500026C020912A0230912B0286FF0DC0ADE10B
:10046000B2E080E090E0F901E80FF91FE491ED932C
:1004700001961817C1F708C0D901912FEDE1F2E0FC
:100480008D9181939150E1F71150812F90E01F5F82
:100490000196820F931F90932B0280932A028DE185
:1004A00092E0612F31D0612F6C5F6C3041F08FEFA3
:1004B00080930C0104C08FEF80930C016EE1609378
:1004C0000B0194E189B18C7031F49150D9F71092FD
:1004D0002D0210922702DF91CF911F910895A82F2E
:1004E000B92F80E090E041E050EA609530E009C02B
:1004F0002D9182279795879510F084279527305E58
:10050000C8F36F5FA8F30895EADF8D939D93089574
:10051000CF93CFB7CF93DF93C3954B9BE9F74B9B1B
:1005200011C04B9B0FC04B9B0DC04B9B0BC04B9BFB
:1005300009C04B9B07C04B9B05C04B9B03C04B9B0B
:1005400001C081C06F93C0912902DD27C05DDD4FDE
:100550002F9320E400C065E04B9B03C02F916F9167
:10056000DECF0F931F934F9345E55F9355E53F9380
:100570003BE014E009B10C702EC06A95C9F031500F
:10058000D8F109B10C7001130BC008942795299379
:1005900020E4555500F46A9569F701E069B10BC094
:1005A000102F66E02695299320E4555518F3E2CFE5
:1005B0000FEF69B10000162F455500F0404066E08E
:1005C0001C700030E2F221F0000009B10C7003C091
:1005D00009B10C70A9F0011309C00894279568F2BD
:1005E00000C06A95A9F700E069B1E5CF102F66E079
:1005F000269528F20000ECCF11E01CBB002717C0A5
:100600003B503195C31BD04011E01CBB0881033C1B
:10061000F9F00B34E9F0209127021981110F121320
:10062000EDCF093651F10D3211F0013E39F700934B
:100630002E023F915F914F911F910F912F916F91DA
:10064000CCB3C0FD69CFDF91CF91CFBFCF911895CB
:1006500020912E02222369F310912C02112329F5F7
:1006600034302AF130932C02209328021091290271
:100670003BE0311B309329021AC000912C0201305B
:10068000A4F40AE530910B0134FD12C000930B0174
:10069000CCE1D2E011C0052710E000C00BB919C0B1
:1006A000052710E0221F00C01DC04AE502C032ED40
:1006B000432FC4E1D0E032E01AB11C605B9A0BB169
:1006C0001AB95CE020E869E420FF05270BB92795FB
:1006D000179500C000001C3FF0F66695A8F7A1F73B
:1006E00020FF05270BB92795179500001C3FC0F682
:1006F00029913A9541F7037F10912D02110F0BB903
:10070000C651D04011F01093270211E01CBB0860C5
:100710001AB1137F402F437F55E05A95F1F70BB97B
:100720001AB94BB986CF14BC15BC16BC85E085BD83
:10073000089586B58436D8F080911A0190911B01F6
:10074000019690931B0180931A01893C910550F00A
:1007500010921B0110921A011092170110921801A9
:100760001092190114BC15BC16BC85E085BD089516
:1007700010921B0110921A01109217011092180189
:1007800010921901089510921B0110921A01DC01B8
:1007900020E010C0E0911901F0E0EA5BFD4F80819C
:1007A0008D938091190190E001968F7190708093E4
:1007B00019012F5F261770F30895CF93DF93EC0193
:1007C00010921B0110921A0180911701882311F0D9
:1007D00090E004C088818093170191E08091170117
:1007E0008823E9F0392F18C0809117018150809338
:1007F00017018F5F11F18091180190E0DC01AA5B75
:10080000BD4FFE01E30FF11D20812C9301968F71E6
:100810009070809318013F5F361730F30EC010922E
:100820001B0110921A0110921701109218011092D8
:100830001901898166E472E052DCDF91CF9108955D
:04084000F894FFCF5A
:0E0844006D6F746F00302E302E31005AFF00A1
:00000001FF
