:1000000045C0A9C25EC05DC05CC05BC05AC059C0DB
:1000100058C057C056C055C054C053C052C051C03C
:1000200050C04FC04EC0040309041E037400720088
:1000300061006E0073006D00610067006E00650076
:100040007400690063007300200362007200750091
:10005000730068006C006500730073005F006D0042
:100060006F0074006F00720012011001FF000008A1
:10007000C016DD05000101020001090212000101A4
:1000800000800A09040000000000000011241FBEC7
:10009000CFE5D4E0DEBFCDBF10E0A0E6B0E0ECEBF2
:1000A000F8E002C005900D92AE36B107D9F711E025
:1000B000AEE6B0E001C01D92A63CB107E1F7F8D072
:1000C000FBC39ECF81B3836081BB82B382BB0895A3
:1000D00092B39C7F982B92BB089592B39E7F982BEE
:1000E00092BB089592B39D7F982B92BB089582B3E3
:1000F00092B3809581709E7F892B82BB08959199E0
:1001000002C092E001C090E082B38D7F982B92BB39
:100110000895DF93CF93CDB7DEB72B970FB6F89442
:10012000DEBF0FBECDBFFB01843031F1853038F426
:10013000823009F460C0833009F06FC006C085309A
:1001400079F1863009F069C042C080812181DB01EC
:1001500090E0FC01E458FF4FAC01420F511D9A01A1
:1001600024583F4F04C011968C911197819311969A
:10017000E217F307C1F763C08081218190E0DC01C1
:10018000A458BF4FAC01420F511D9A0124583F4F54
:1001900002C08D9181833196A217B307D1F74FC06A
:1001A00080812181DB0190E0FC01E450FF4FAC0134
:1001B000420F511D9A0124503F4F04C011968C915B
:1001C000119781931196E217F307C1F738C0808128
:1001D000218190E0DC01A450BF4FAC01420F511DC2
:1001E0009A0124503F4F02C08D9181833196A2170E
:1001F000B307D1F724C09E012F5F3F4F40E650E088
:1002000085E0DA010D90AD01D9010D929D0181507B
:10021000C1F789818823F1F711C09E012A5F3F4F02
:1002200045E650E086E0DA010D90AD01D9010D926E
:100230009D018150C1F78E818823F1F710822B96A2
:100240000FB6F894DEBF0FBECDBFCF91DF910895FA
:10025000FC018EE690E090938B0180938A0180816F
:100260008076803239F48181813011F0893011F447
:100270008FEF089580E00895FF920F931F938C01F4
:10028000F62E35DFC8016F2DD7D281E01F910F9177
:10029000FF9008951F93162FFC0180E003C08F5933
:1002A000819380568117D8F32ADF812F1F910895FB
:1002B000F89408DF2EE088E190E00FB6F894A89556
:1002C00081BD0FBE21BD12D08B9A26E948EB5BE0C1
:1002D00004C0CA010197F1F7A8952150D0F768D260
:1002E0008B9878940AD0A89568D2FCCF85B78260A5
:1002F00085BF8BB780648BBF08951F93CF93DF9327
:1003000060918C01635067FDA3C080918901CCE0AE
:10031000D0E0C81BD109C057DE4F809188018D32D3
:1003200009F084C0683009F091C083EC80937C01AF
:100330008AE580936B00109276008881807639F090
:10034000CE0186DF282F8F3F09F45FC065C09A81F8
:10035000109285018981882321F41092860122E080
:100360004DC0853019F490938D0147C08630B1F5AA
:100370008B81813019F488E690E004C0823041F42A
:100380008AE790E090938B0180938A0122E122C05A
:100390008330F9F48A81882341F486E290E09093D7
:1003A0008B0180938A0124E015C0813041F48AE2F8
:1003B00090E090938B0180938A012EE10BC08230F4
:1003C00041F488E490E090938B0180938A0120E2CD
:1003D00001C020E080E4809376001EC0883021F4C4
:1003E00021E08FE891E00CC0893019F490938F01DF
:1003F00004C08A3011F421E001C020E085E891E0DA
:1004000090938B0180938A0107C0888187FD2E819C
:1004100080E88093760006C08F81882319F48E814E
:10042000821708F0822F80936C0010C080917600B4
:1004300087FF0CC0CE0120DF8F3F21F48EE1809337
:100440006B0004C0882311F010926C0010928C0194
:1004500080916B0084FF58C080916C008F3F09F43D
:1004600053C0182F893008F018E0811B80936C006E
:1004700080917C0198E8892780937C01112391F178
:100480008091760087FF08C08DE791E0612F02DF41
:10049000182F893098F526C020918A0130918B0160
:1004A00086FF0DC0ADE7B1E080E090E0F901E80F14
:1004B000F91FE491ED9301961817C1F708C0912F29
:1004C000D901EDE7F1E08D9181939150E1F7115061
:1004D000812F90E01F5F0196820F931F90938B01F5
:1004E00080938A018DE791E0612F31D0612F6C5F9D
:1004F0006C3041F08FEF80936C0004C08FEF8093DD
:100500006C006EE160936B0094E180B38C7031F409
:100510009150D9F710928D0110928701DF91CF9100
:100520001F910895A82FB92F80E090E041E050EA94
:10053000609530E009C02D9182279795879510F03E
:1005400084279527305EC8F36F5FA8F30895EADF2C
:100550008D939D930895CF93CFB7CF93C395839BEE
:10056000E9F7839B09C0839B07C0839B05C0839BDE
:1005700003C0839B01C0A1C0DF93C0918901DD2727
:10058000C057DE4F839B02C0DF91EBCF2F930F93B9
:100590001F9300B32FEF03FB20F94F933F9310B34A
:1005A0004FEF012703FB21F93BE031C04E7F012FC4
:1005B00010B3216028C0102F4D7F2260000000B3CF
:1005C00029C04B7F2460012F000010B32BC010B353
:1005D000477F28602AC04F7E00B320612CC04F7D2A
:1005E00010B320622FC04F7B00B3206432C042277B
:1005F00000B349934FEF0000102713FB20F910B30D
:100600001C70C9F1297F91F2012703FB21F900B386
:10061000237F89F2315058F1102713FB22F910B3D0
:10062000277E79F2012703FB23F92F7C81F200B3A7
:10063000102713FB24F92F7971F200C010B30127A2
:1006400003FB25F92F7359F200C000B3102713FBE9
:1006500026F9223040F200C010B3012703FB27F92E
:10066000243028F64F77206810B30000F9CF10E44B
:100670001ABF002717C03B503195C31BD04010E470
:100680001ABF0881033CE9F00B34D9F020918701AF
:100690001981110F1213EDCF093641F10D3211F00E
:1006A000013E39F700938E013F914F911F910F91B9
:1006B0002F91DF91CAB7C6FD51CFCF91CFBFCF9158
:1006C000189520918E01222379F310918C0111232A
:1006D00011F5343012F130938C0120938801109180
:1006E00089013BE0311B3093890117C000918C01D7
:1006F00001308CF40AE530916B0034FD10C000939A
:100700006B00CCE7D1E00FC02795A8F45150A9F4B5
:10071000220F0000F9CF4AE503C042ED01C0432F8C
:10072000C4E1D0E032E011B31C60939A11BB02B374
:1007300020E41CE05F93012756E002BB279520F4DC
:10074000515021F4220FF9CF012756E000003B5A07
:1007500002BBD0F2279528F4515029F4220F000053
:10076000F9CF012756E0279502BB20F4515021F420
:10077000220FF9CF012756E02991332302BB21F63E
:10078000037F10918D01110FC651D04002BB11F0B3
:100790001093870110E41ABF086011B3137F402F34
:1007A000437F5F9100C000C002BB11BB42BB7CCF46
:1007B00013BE12BE85E083BF089582B78436D0F0A1
:1007C00080917A0090917B00019690937B008093BA
:1007D0007A00893C910550F010927B0010927A00CB
:1007E00010927700109278001092790013BE12BE1A
:1007F00085E083BF089510927B0010927A001092DA
:10080000770010927800109279000895DC0120E0C2
:1008100010C0E0917900F0E0EA55FE4F80818D93A1
:100820008091790090E001968F71907080937900AB
:100830002F5F261770F30895CF93DF93EC0110928A
:100840007B0010927A0080917700882311F030E0CD
:1008500004C088818093770031E0809177008823FD
:10086000B9F419C08091780090E0DC01AA55BE4F20
:10087000FE01E30FF11D20812C9301968F71907082
:1008800080937800809177008150809377003F5F5C
:10089000361740F30EC010927B0010927A0010922F
:1008A00077001092780010927900898166EA71E0F1
:0C08B00030DCDF91CF910895F894FFCF69
:0E08BC006D6F746F00302E302E31005AFF0029
:00000001FF
