:100000004CC009C665C064C063C062C061C060C046
:100010005FC05EC05DC05CC05BC05AC059C058C004
:1000200057C056C055C054C053C052C051C050C034
:100030004FC04EC0040309041E0374007200610027
:100040006E0073006D00610067006E006500740053
:100050006900630073002003620072007500730082
:1000600068006C006500730073005F006D006F0036
:1000700074006F00720012011001FF000008C0162A
:10008000DD050001010200010902120001010080EA
:100090000A09040000000000000011241FBECFEF79
:1000A000D4E0DEBFCDBF11E0A0E0B1E0E0E2FBE1D3
:1000B00002C005900D92A631B107D9F712E0A6E172
:1000C000B1E001C01D92AE36B107E1F72BD226CDCB
:1000D00097CFDF93CF93CDB7DEB7CF91DF91089560
:1000E000DF93CF930F92CDB7DEB789830F90CF9177
:1000F000DF910895DF93CF930F92CDB7DEB7898359
:100100000F90CF91DF910895DF93CF930F92CDB7EA
:10011000DEB789830F90CF91DF910895DF93CF935E
:10012000CDB7DEB7CF91DF910895DF93CF93CDB7F1
:10013000DEB7CF91DF910895DF93CF9300D000D049
:100140000F92CDB7DEB789837B836A838981282F9D
:1001500030E03D832C838C819D818330910501F1BA
:100160002C813D81243031055CF48C819D8181306E
:10017000910551F12C813D812230310509F127C0D3
:100180008C819D818530910599F02C813D812530B0
:10019000310554F08C819D818630910569F017C03E
:1001A0008A819B81D1D013C08A819B810BD10FC0E2
:1001B0008A819B8141D10BC08A819B817AD107C002
:1001C0008A819B8168D003C08A819B8108D00F906F
:1001D0000F900F900F900F90CF91DF910895DF93C4
:1001E000CF93CDB7DEB72F970FB6F894DEBF0FBE13
:1001F000CDBF9A87898780E18A83CE0103969C8749
:100200008B87E0E0F1E0FE87ED87F6E0FF87ED8584
:10021000FE8500808D859E8501969E878D87EB8566
:10022000FC8500828B859C8501969C878B879F85AA
:1002300091509F87EF85EE2351F719828981282FEE
:1002400030E089859A85DC01A20FB31F8981282FB0
:1002500030E0CE010396FC01E20FF31F80818C9306
:1002600089818F5F89838981282F30E0CE010396B1
:10027000FC01E20FF31F8081882321F099818A819C
:100280009817E0F22F960FB6F894DEBF0FBECDBFE1
:10029000CF91DF910895DF93CF93CDB7DEB72E973F
:1002A0000FB6F894DEBF0FBECDBF9987888780E177
:1002B0008A83CE0103969B878A87E6E0F1E0FD877B
:1002C000EC87F5E0FE87EC85FD8500808C859D85BB
:1002D00001969D878C87EA85FB8500828A859B85B0
:1002E00001969B878A879E8591509E87EE85EE2397
:1002F00051F719828981282F30E088859985DC01A2
:10030000A20FB31F8981282F30E0CE010396FC0194
:10031000E20FF31F80818C938981282F30E0CE017A
:100320000396FC01E20FF31F8081882321F099815D
:100330008A819817F8F22E960FB6F894DEBF0FBE9A
:10034000CDBFCF91DF910895DF93CF9300D000D040
:100350000F92CDB7DEB79D838C83E0DEEC81FD810B
:1003600080818B838C819D81FC01319680818A8381
:1003700019821CC08B81282F30E08981882F90E062
:10038000A901480F591F8981882F90E09C012E5F99
:100390003F4F8C819D81FC01E20FF31F8081FA01A8
:1003A000EC5DFE4F808389818F5F898399818A818B
:1003B000981700F30F900F900F900F900F90CF9120
:1003C000DF910895DF93CF9300D000D00F92CDB787
:1003D000DEB79D838C83A9DEEC81FD8180818B83D8
:1003E0008C819D81FC01319680818A83198218C09D
:1003F0008981282F30E08C819D81DC01A20FB31F01
:100400008B81282F30E08981882F90E0820F931F05
:10041000FC01EC5DFE4F80818C9389818F5F898325
:1004200099818A81981720F30F900F900F900F9069
:100430000F90CF91DF910895DF93CF9300D000D03C
:100440000F92CDB7DEB79D838C83EC81FD818081D7
:100450008B838C819D81FC01319680818A831982F6
:100460001CC08B81282F30E08981882F90E0A90162
:10047000480F591F8981882F90E09C012E5F3F4FC4
:100480008C819D81FC01E20FF31F8081FA01EC5504
:10049000FE4F808389818F5F898399818A81981734
:1004A00000F30F900F900F900F900F90CF91DF916E
:1004B0000895DF93CF9300D000D00F92CDB7DEB771
:1004C0009D838C83EC81FD8180818B838C819D81D8
:1004D000FC01319680818A83198218C08981282F76
:1004E00030E08C819D81DC01A20FB31F8B81282F0E
:1004F00030E08981882F90E0820F931FFC01EC553A
:10050000FE4F80818C9389818F5F898399818A8155
:10051000981720F30F900F900F900F900F90CF919E
:10052000DF910895DF93CF93CDB7DEB760970FB615
:10053000F894DEBF0FBECDBFF894CBDD88E190E02C
:100540002EE00FB6F894A895809360000FBE20931C
:1005500060002BD3AAE2B0E0EAE2F0E0808188609C
:100560008C9386E98F876DC080E090E0A0E8BFE3C0
:100570008B879C87AD87BE876B857C858D859E85A7
:1005800020E030E44CE955E4FED6DC01CB018F835A
:100590009887A987BA876F81788589859A8520E0B1
:1005A00030E040E85FE33AD888232CF481E090E023
:1005B0009E838D833BC06F81788589859A8520E0F5
:1005C0003FEF4FE757E4D4D718163CF56B857C8591
:1005D0008D859E8520E030E040E251E4D4D6DC01F8
:1005E000CB01BC01CD010BD5DC01CB019E838D83FA
:1005F0000FC084EF91E09C838B838B819C8101975A
:10060000F1F79C838B838D819E8101979E838D83DF
:100610008D819E81009769F713C06F8178858985E8
:100620009A85EDD4DC01CB019E838D838D819E81E3
:100630009A83898389819A810197F1F79A838983C3
:10064000A8958F85888B8889882311F081E0888B15
:1006500088899F8591509F87882309F085CFE6D3AD
:10066000AAE2B0E0EAE2F0E08081877F8C937894A0
:10067000D1D0A895EFD3FCCFDF93CF9300D000D09B
:100680000F92CDB7DEB79C838B838B819C819A833D
:10069000898386E191E09093330280933202E9816D
:1006A000FA818081882F90E080769070009781F0A9
:1006B000E981FA818181813019F48FEF8D8309C03E
:1006C000E981FA818181893019F48FEF8D8301C02E
:1006D0001D828D810F900F900F900F900F90CF91F2
:1006E000DF910895DF93CF9300D00F92CDB7DEB79F
:1006F0009A8389836B8389819A816B8147D48B81AB
:100700000F900F900F90CF91DF910895DF93CF93CB
:1007100000D00F92CDB7DEB79A8389836B8389812E
:100720009A816B81C6D381E00F900F900F90CF918B
:10073000DF910895DF93CF93CDB7DEB72A970FB639
:10074000F894DEBF0FBECDBF998788876A878A85F8
:10075000882309F455C080911E01882334F48885CC
:1007600099856A85BFDF8A874BC08A858F83809190
:100770003202909133029E838D8380911E01882FD7
:1007800090E0807490700097F9F08D819E819B833A
:100790008A83EA81FB818491898389818C83E885BE
:1007A000F9858C81808388859985019699878887CA
:1007B0008D819E8101969E838D838F8181508F8351
:1007C0008F81882311F716C0ED81FE818081E88535
:1007D000F9858083888599850196998788878D8199
:1007E0009E8101969E838D838F8181508F838F811F
:1007F000882351F78D819E8190933302809332023A
:100800008A852A960FB6F894DEBF0FBECDBFCF9172
:10081000DF910895DF93CF9300D00F92CDB7DEB76D
:100820008091340283508B838B8188237CF080916C
:100830003102282F30E08CE090E0821B930B885C23
:100840009D4F2B81622F2DD01092340280910B018D
:10085000882F90E080719070009729F080910C01B2
:100860008F3F09F053D184E18A830BC0E9E2F0E0C5
:1008700080818C7089838981882359F48A81815091
:100880008A838A81882391F71092350210922F0271
:100890007BD18A8180D10F900F900F90CF91DF9103
:1008A0000895DF93CF93CDB7DEB728970FB6F894AE
:1008B000DEBF0FBECDBF9F838E8368878E819F81F1
:1008C0009D838C83809130028D3209F040C08885F1
:1008D000883009F051C083EC809324028AE580932C
:1008E0000B0110921E01EC81FD81808180768A834C
:1008F0008A81882329F08E819F81BEDE8B8304C08C
:100900008C819D8142D08B838B818F3F69F4EC81F8
:10091000FD818081882324F4EC81FD8186818B8395
:1009200080E880931E010FC0EC81FD8187818823C0
:1009300051F4EC81FD8196818B81981720F4EC8134
:10094000FD8186818B838B8180930C0115C0809102
:100950001E0188238CF48E819F816885D7DE898370
:1009600089818F3F21F48EE180930B0105C089813D
:10097000882311F010920C0128960FB6F894DEBF70
:100980000FBECDBFCF91DF910895DF93CF93CDB749
:10099000DEB728970FB6F894DEBF0FBECDBF98879D
:1009A0008F831E828DE292E09D838C83EF81F88598
:1009B00082818B83EC81FD811082EF81F8858181BA
:1009C0008A838A81882369F4EF81F88580818F7119
:1009D00089838C819D81FC013196108282E08E8317
:1009E00026C08A81853021F48B81809335021FC017
:1009F0008A81863029F48F81988529D08E831DC005
:100A00008A81883039F487E392E09D838C8381E08A
:100A10008E830DC08A81893029F48B8180933702BF
:100A2000B3D005C08A818A3011F481E08E838C8135
:100A30009D8190933302809332028E8128960FB667
:100A4000F894DEBF0FBECDBFCF91DF910895DF9345
:100A5000CF9300D000D000D0CDB7DEB79E838D837A
:100A60001C8280E48B83ED81FE8183818A838A816D
:100A7000813049F482E18C8386E790E090933302E1
:100A80008093320236C08A81823049F482E18C83BD
:100A900088E890E090933302809332022AC08A81E2
:100AA000833039F5ED81FE818281898389818823B4
:100AB00049F484E08C8384E390E090933302809344
:100AC000320217C08981813049F48EE18C8388E33A
:100AD00090E090933302809332020BC08981823080
:100AE00041F480E28C8386E590E09093330280931A
:100AF00032028B8180931E018C8126960FB6F8946A
:100B0000DEBF0FBECDBFCF91DF910895DF93CF93AE
:100B100000D0CDB7DEB780910C018A838A818930FD
:100B200010F088E08A8390910C018A81292F281B7C
:100B3000822F80930C019091240288E8892780936A
:100B4000240285E292E06A81F5DD8983898189301A
:100B500070F485E292E069815AD089818C5F898343
:100B600089818C3048F48FEF80930C0105C08EE1B1
:100B700089838FEF80930C01898180930B010F9003
:100B80000F90CF91DF910895DF93CF93CDB7DEB76C
:100B9000CF91DF910895DF93CF930F92CDB7DEB75A
:100BA00089830F90CF91DF910895DF93CF93CDB7D5
:100BB000DEB7A9E6B0E0E9E6F0E0808182608C93E0
:100BC000ADE3B0E0EDE3F0E0808181608C9303D091
:100BD000CF91DF910895DF93CF93CDB7DEB7CF915B
:100BE000DF910895A82FB92F80E090E041E050EA0E
:100BF000609530E009C02D9182279795879510F078
:100C000084279527305EC8F36F5FA8F30895EADF65
:100C10008D939D930895CF93CFB7CF93DF93C395D3
:100C20004B9BE9F74B9B11C04B9B0FC04B9B0DC0DF
:100C30004B9B0BC04B9B09C04B9B07C04B9B05C0FC
:100C40004B9B03C04B9B01C081C06F93C09131028D
:100C5000DD27C85CDD4F2F9320E400C065E04B9B8F
:100C600003C02F916F91DECF0F931F934F9345E5F4
:100C70005F9355E53F933BE014E009B10C702EC043
:100C80006A95C9F03150D8F109B10C7001130BC04D
:100C900008942795299320E4555500F46A9569F73F
:100CA00001E069B10BC0102F66E02695299320E47E
:100CB000555518F3E2CF0FEF69B10000162F4555D7
:100CC00000F0404066E01C700030E2F221F00000CD
:100CD00009B10C7003C009B10C70A9F0011309C06F
:100CE0000894279568F200C06A95A9F700E069B1F9
:100CF000E5CF102F66E0269528F20000ECCF11E03A
:100D00001CBB002717C03B503195C31BD04011E0DE
:100D10001CBB0881033CF9F00B34E9F020912F0251
:100D20001981110F1213EDCF093651F10D3211F067
:100D3000013E39F7009336023F915F914F911F9129
:100D40000F912F916F91CCB3C0FD69CFDF91CF91FF
:100D5000CFBFCF91189520913602222369F31091CD
:100D60003402112329F534302AF1309334022093D0
:100D70003002109131023BE0311B309331021AC036
:100D8000009134020130A4F40AE530910B0134FDE6
:100D900012C000930B01C4E2D2E011C0052710E09D
:100DA00000C00BB919C0052710E0221F00C01DC0EC
:100DB0004AE502C032ED432FC4E1D0E032E01AB17F
:100DC0001C605B9A0BB11AB95CE020E869E420FF73
:100DD00005270BB92795179500C000001C3FF0F6BA
:100DE0006695A8F7A1F720FF05270BB9279517955A
:100DF00000001C3FC0F629913A9541F7037F1091FE
:100E00003502110F0BB9C651D04011F010932F02CB
:100E100011E01CBB08601AB1137F402F437F55E0DF
:100E20005A95F1F70BB91AB94BB986CFDF93CF9327
:100E3000CDB7DEB7E4E4F0E01082E5E4F0E0108244
:100E4000E6E4F0E01082E5E4F0E085E08083CF9115
:100E5000DF910895DF93CF93CDB7DEB7E6E4F0E0FE
:100E60008081843690F08091220190912301019637
:100E7000909323018093220180912201909123017C
:100E8000893C910508F004D0D1DFCF91DF9108951E
:100E9000DF93CF93CDB7DEB71092230110922201DA
:100EA00010921F011092200110922101CF91DF9129
:100EB0000895DF93CF93CDB7DEB727970FB6F89499
:100EC000DEBF0FBECDBF9C838B836D831092230149
:100ED0001092220180911F01882341F4EB81FC8153
:100EE000808180931F0181E08A8301C01A828091F2
:100EF0001F018823C1F18A81898330C080911F013D
:100F00008E838E818F838F81882311F081E08F8380
:100F10009F818E81815080931F01992371F180916F
:100F20002001482F50E08981282F30E08B819C815F
:100F3000FC01E20FF31F8081FA01E25BFD4F808329
:100F400080912001882F90E0019620E230E0B901E5
:100F500087D58093200189818F5F898399818D81D5
:100F6000981760F20AC094DF8B819C81FC01319656
:100F700080812EE432E0B901DFD827960FB6F894CD
:100F8000DEBF0FBECDBFCF91DF910895DF93CF932A
:100F900000D000D0CDB7DEB79B838A836C831092DC
:100FA00023011092220119821FC08981282F30E06D
:100FB0008A819B81DC01A20FB31F80912101882FC0
:100FC00090E0FC01E25BFD4F80818C9380912101D8
:100FD000882F90E0019620E230E0B90141D580935E
:100FE000210189818F5F898399818C819817E8F22B
:100FF0000F900F900F900F90CF91DF910895EF9287
:10100000FF920F931F937B018C0120E030E040E0C2
:101010005FE4D9D288237CF0C801B70120E030E03A
:1010200040E05FE45ED125D39B01AC01205030400D
:101030004040504805C0C801B7011BD39B01AC011B
:10104000B901CA011F910F91FF90EF900895A0E0A0
:10105000B0E0ECE2F8E02BC5DC012B01FA019C9139
:10106000923008F439C1EB018881823008F433C131
:10107000943069F4843009F02FC111969C91119736
:101080008981981709F428C1ADE0B1E025C1843009
:1010900009F421C18230A9F4923009F01DC19A01EE
:1010A000AD0188E0EA010990AE01E90109929E01D3
:1010B0008150C1F7E201898111969C918923818336
:1010C00008C1923009F407C112962D903C901397F5
:1010D000EB018A819B811496AD90BD90CD90DC9000
:1010E0001797EC80FD800E811F819101281B390B21
:1010F000B90137FF04C066277727621B730B603284
:1011000071050CF061C0121613066CF53701480129
:10111000062E04C096948794779467940A94D2F725
:1011200021E030E040E050E004C0220F331F441FB4
:10113000551F6A95D2F721503040404050402E2133
:101140003F2140235123211531054105510521F04F
:1011500021E030E040E050E079018A01E628F728FC
:10116000082919293CC0232BD1F1260E371E350141
:101170004601062E04C096948794779467940A9447
:10118000D2F721E030E040E050E004C0220F331FEE
:10119000441F551F6A95D2F72150304040405040BF
:1011A0002A213B214C215D212115310541055105A5
:1011B00021F021E030E040E050E059016A01A6282A
:1011C000B728C828D9280BC0821593052CF01C011C
:1011D000AA24BB24650103C0EE24FF2487011196D5
:1011E0009C91D20111968C91981709F445C09923CE
:1011F00039F0A80197012A193B094C095D0906C07D
:10120000A60195012E193F09400B510B57FD08C04F
:1012100011823382228224833583468357831DC003
:1012200081E081833382228288279927DC01821B17
:10123000930BA40BB50B84839583A683B7830DC052
:10124000220F331F441F551F248335834683578342
:1012500082819381019793838283248135814681A2
:101260005781DA01C9010197A109B1098F5F9F4F29
:10127000AF4FBF4328F30BC0918333822282EA0C25
:10128000FB1C0C1D1D1DE482F5820683178383E081
:101290008083248135814681578157FF1AC0C90157
:1012A000AA2797FDA095BA2F81709070A070B0709A
:1012B0005695479537952795822B932BA42BB52BC5
:1012C00084839583A683B7838281938101969383D8
:1012D0008283DF0101C0D201CD01CDB7DEB7E2E1EB
:1012E00002C4A0E2B0E0E6E7F9E0EDC369837A83E7
:1012F0008B839C832D833E834F835887E9E0EE2EBA
:10130000F12CEC0EFD1ECE010196B701D8D28E0154
:101310000F5E1F4FCE010596B801D1D28A8991E0A8
:1013200089278A8BC701B801AE01475E5F4F8FDE08
:10133000F1D1A096E6E0E3C3A0E2B0E0E1EAF9E093
:10134000C2C369837A838B839C832D833E834F83BF
:101350005887F9E0EF2EF12CEC0EFD1ECE01019620
:10136000B701ADD28E010F5E1F4FCE010596B801B9
:10137000A6D2C701B801AE01475E5F4F68DECAD191
:10138000A096E6E0BCC3A0E2B0E0E8ECF9E08FC3D1
:1013900069837A838B839C832D833E834F83588715
:1013A000CE010196BE01675F7F4F89D2CE010596BF
:1013B000BE016F5E7F4F83D29985923088F0898914
:1013C0008230C8F0943019F4823051F404C0843073
:1013D00029F4923081F48DE091E0C6C0923049F456
:1013E00020E09A858A89981321E02A87CE01099600
:1013F000BBC0823049F420E09A858A89981321E0A5
:101400002A8BCE014196B0C02D843E844F845888EB
:101410006D887E888F88988CEE24FF248701AA240B
:10142000BB24650140E050E060E070E0E0E0F0E007
:10143000C10181709070892BE9F0E60CF71C081D42
:10144000191D9A01AB012A0D3B1D4C1D5D1D80E04D
:1014500090E0A0E0B0E0E614F7040805190520F4D8
:1014600081E090E0A0E0B0E0BA01A901480F591F67
:101470006A1F7B1FAA0CBB1CCC1CDD1C97FE08C07E
:1014800081E090E0A0E0B0E0A82AB92ACA2ADB2ACD
:101490003196E032F10549F0660C771C881C991CE6
:1014A0005694479437942794C3CFFA85EA892B89B9
:1014B0003C898B859C85280F391F2E5F3F4F17C0B5
:1014C000CA0181709070892B61F016950795F79489
:1014D000E79480E090E0A0E0B0E8E82AF92A0A2B3F
:1014E0001B2B76956795579547952F5F3F4F77FD57
:1014F000E7CF0CC0440F551F661F771F17FD4160D3
:10150000EE0CFF1C001F111F21503040403090E0B6
:10151000590790E0690790E4790760F32B8F3C8FBF
:10152000DB01CA018F779070A070B0708034910594
:10153000A105B10561F447FD0AC0E114F1040105FC
:10154000110529F0405C5F4F6F4F7F4F40781A8E36
:10155000FE1711F081E08A8F4D8F5E8F6F8F78A319
:1015600083E0898FCE014996D5D0A096E2E1BBC237
:10157000A8E1B0E0EDEBFAE0A6C269837A838B8341
:101580009C832D833E834F83588789E0E82EF12C7E
:10159000EC0EFD1ECE010196B70191D18E010F5EBA
:1015A0001F4FCE010596B8018AD18985823038F067
:1015B0008989823020F0C701B801F9D101C08FEFCD
:1015C0006896E6E09CC2A8E1B0E0E8EEFAE07BC2F3
:1015D00069837A838B839C832D833E834F835887D3
:1015E00089E0E82EF12CEC0EFD1ECE010196B7012C
:1015F00066D18E010F5E1F4FCE010596B8015FD1F7
:101600008985823038F08989823020F0C701B8019D
:10161000CED101C08FEF6896E6E071C2A8E1B0E0DC
:10162000E3E1FBE050C269837A838B839C832D8343
:101630003E834F83588789E0E82EF12CEC0EFD1E87
:10164000CE010196B7013BD18E010F5E1F4FCE0137
:101650000596B80134D18985823038F08989823085
:1016600020F0C701B801A3D101C081E06896E6E08F
:1016700046C2ACE0B0E0EEE3FBE029C269837A83C6
:101680008B839C83CE010196BE016B5F7F4F17D188
:101690008D81823061F1823050F1843021F48E816D
:1016A000882351F12EC02F81388537FD20C06E81EF
:1016B0002F3131051CF06623F9F023C08EE190E054
:1016C000821B930B29853A854B855C8504C0569512
:1016D0004795379527958A95D2F76623B1F05095AF
:1016E0004095309521953F4F4F4F5F4F0EC020E002
:1016F00030E040E050E009C02FEF3FEF4FEF5FE7F1
:1017000004C020E030E040E050E8B901CA012C9666
:10171000E2E0F9C1DF92EF92FF920F931F93FC0179
:10172000E480F58006811781D1808081823048F481
:1017300080E090E0A0E1B0E0E82AF92A0A2B1B2B18
:10174000A5C0843009F49FC0823021F4EE24FF2428
:10175000870105C0E114F1040105110519F4E0E069
:10176000F0E096C0628173819FEF623879070CF0D8
:101770005BC022E83FEF261B370B2A3131052CF0E6
:1017800020E030E040E050E02AC0B801A701022E7E
:1017900004C076956795579547950A94D2F781E0EE
:1017A00090E0A0E0B0E004C0880F991FAA1FBB1F03
:1017B0002A95D2F70197A109B1098E219F21A02373
:1017C000B1230097A105B10521F081E090E0A0E0F0
:1017D000B0E09A01AB01282B392B4A2B5B2BDA01A5
:1017E000C9018F779070A070B07080349105A10509
:1017F000B10539F427FF09C0205C3F4F4F4F5F4FC1
:1018000004C0215C3F4F4F4F5F4FE0E0F0E02030DD
:10181000A0E03A07A0E04A07A0E45A0710F0E1E090
:10182000F0E079018A0127C06038710564F5FB0199
:10183000E158FF4FD801C7018F779070A070B0704A
:1018400080349105A105B10539F4E7FE0DC080E4AF
:1018500090E0A0E0B0E004C08FE390E0A0E0B0E052
:10186000E80EF91E0A1F1B1F17FF05C016950795E6
:10187000F794E794319687E016950795F794E794E7
:101880008A95D1F705C0EE24FF248701EFEFF0E041
:101890006E2F679566276795902F9F77D794DD24E5
:1018A000D7948E2F8695492F462B582F5D29B70147
:1018B000CA011F910F91FF90EF90DF900895FC01F6
:1018C000DB01408151812281622F6F7770E0221FFE
:1018D0002227221F9381892F880F822B282F30E007
:1018E000991F9927991F11969C93119721153105DE
:1018F000A9F5411551056105710511F482E037C064
:1019000082E89FEF13969C938E9312979A01AB01F6
:1019100067E0220F331F441F551F6A95D1F783E0FC
:101920008C930DC0220F331F441F551F12968D91AB
:101930009C911397019713969C938E931297203046
:1019400080E0380780E0480780E4580758F3149691
:101950002D933D934D935C93179708952F3F310539
:1019600079F4411551056105710519F484E08C93F2
:10197000089564FF03C081E08C9312C01C9210C0D4
:101980002F57304013963C932E93129783E08C93FD
:1019900087E0440F551F661F771F8A95D1F7706443
:1019A00014964D935D936D937C93179708951F93B1
:1019B000DC01FB019C91923008F447C080818230A9
:1019C00008F443C0943051F411961C91843099F579
:1019D0008181682F70E0611B71093FC0843021F064
:1019E000923031F48230B9F18181882389F12DC0A0
:1019F00011961C9111978230F1F081811817D9F45A
:101A000012962D913C9113978281938182179307AF
:101A100094F028173907BCF014968D919D910D9084
:101A2000BC91A02D24813581468157812817390723
:101A30004A075B0718F4112341F00AC08217930785
:101A4000A407B50740F4112319F061E070E005C068
:101A50006FEF7FEF02C060E070E0CB011F9108954F
:101A600097FB092E07260AD077FD04D00CD006D0AC
:101A700000201AF4709561957F4F0895F6F79095C0
:101A800081959F4F0895AA1BBB1B51E107C0AA1F58
:101A9000BB1FA617B70710F0A61BB70B881F991F0F
:101AA0005A95A9F780959095BC01CD0108952F9284
:101AB0003F924F925F926F927F928F929F92AF92DE
:101AC000BF92CF92DF92EF92FF920F931F93CF932B
:101AD000DF93CDB7DEB7CA1BDB0B0FB6F894DEBFC2
:101AE0000FBECDBF09942A88398848885F846E84E8
:101AF0007D848C849B84AA84B984C884DF80EE8032
:101B0000FD800C811B81AA81B981CE0FD11D0FB63A
:101B1000F894DEBF0FBECDBFED010895F894FFCF5E
:101B2000302E302E31006D6F746F005AFF000000B0
:061B3000000000000000AF
:00000001FF
