:100000003FC0C3C558C057C056C055C054C053C0E8
:1000100052C051C050C04FC04EC04DC04CC04BC06C
:100020004AC049C048C0040309041A037700770096
:1000300077002E006F0062006400650076002E00DD
:1000400061007400180350006F00770065007200B3
:10005000530077006900740063006800120110010A
:10006000FF000008C016DC050001010200010902C2
:100070001200010100800A090400000000000000D5
:1000800011241FBECFE5D4E0DEBFCDBF10E0A0E657
:10009000B0E0E4EAFAE102C005900D92A637B1079C
:1000A000D9F711E0A6E7B0E001C01D92AE3CB10760
:1000B000E1F7F4D1F5CCA4CFDF93CF9300D000D0FB
:1000C0000F92CDB7DEB789837B836A838981282F1E
:1000D00030E03D832C838C819D8183309105F9F044
:1000E0002C813D81243031055CF48C819D818130EF
:1000F000910509F12C813D812230310561F01FC04D
:100100008C819D818430910571F02C813D81253059
:10011000310569F014C08A819B81CED013C08A81D9
:100120009B8107D10FC08A819B813FD10BC08A81FF
:100130009B8178D107C08A819B8165D003C08A8169
:100140009B8108D00F900F900F900F900F90CF9140
:10015000DF910895DF93CF93CDB7DEB72F970FB61A
:10016000F894DEBF0FBECDBF9A87898780E18A836E
:10017000CE0103969C878B87E0E6F0E0FE87ED8753
:10018000F6E0FF87ED85FE8500808D859E850196D2
:100190009E878D87EB85FC8500828B859C850196EB
:1001A0009C878B879F8591509F87EF85EE2351F722
:1001B00019828981282F30E089859A85DC01A20F78
:1001C000B31F8981282F30E0CE010396FC01E20F96
:1001D000F31F80818C938981282F30E0CE01039614
:1001E000FC01E20FF31F8081882321F099818A812D
:1001F0009817F8F22F960FB6F894DEBF0FBECDBF5A
:10020000CF91DF910895DF93CF93CDB7DEB72E97CF
:100210000FB6F894DEBF0FBECDBF9987888780E107
:100220008A83CE0103969B878A87E6E6F0E0FD8706
:10023000EC87F5E0FE87EC85FD8500808C859D854B
:1002400001969D878C87EA85FB8500828A859B8540
:1002500001969B878A879E8591509E87EE85EE2327
:1002600051F719828981282F30E088859985DC0132
:10027000A20FB31F8981282F30E0CE010396FC0125
:10028000E20FF31F80818C938981282F30E0CE010B
:100290000396FC01E20FF31F8081882321F09981EE
:1002A0008A819817F8F22E960FB6F894DEBF0FBE2B
:1002B000CDBFCF91DF910895DF93CF9300D000D0D1
:1002C0000F92CDB7DEB79D838C83EC81FD81808159
:1002D0008B838C819D81FC01319680818A83198278
:1002E0001CC08B81282F30E08981882F90E0A901E4
:1002F000480F591F8981882F90E09C012E5F3F4F46
:100300008C819D81FC01E20FF31F8081FA01EC5783
:10031000FF4F808389818F5F898399818A819817B4
:1003200000F30F900F900F900F900F90CF91DF91EF
:100330000895DF93CF9300D000D00F92CDB7DEB7F2
:100340009D838C83EC81FD8180818B838C819D8159
:10035000FC01319680818A8319821BC08981882F94
:1003600090E09C012E5F3F4F8C819D81DC01A20FAC
:10037000B31F8B81282F30E08981882F90E0820F76
:10038000931FFC01EC57FF4F80818C9389818F5F15
:10039000898399818A81981708F30F900F900F90A5
:1003A0000F900F90CF91DF910895DF93CF9300D0FE
:1003B00000D00F92CDB7DEB79D838C83EC81FD8199
:1003C00080818B838C819D81FC01319680818A8321
:1003D00019821CC08B81282F30E08981882F90E002
:1003E000A901480F591F8981882F90E09C012E5F39
:1003F0003F4F8C819D81FC01E20FF31F8081FA0148
:10040000EC5FFE4F808389818F5F898399818A8128
:10041000981700F30F900F900F900F900F90CF91BF
:10042000DF910895DF93CF9300D000D00F92CDB726
:10043000DEB79D838C83EC81FD8180818B838C81F1
:100440009D81FC01319680818A8319821BC089813C
:10045000882F90E09C012E5F3F4F8C819D81DC01B5
:10046000A20FB31F8B81282F30E08981882F90E065
:10047000820F931FFC01EC5FFE4F80818C9389817A
:100480008F5F898399818A81981708F30F900F9065
:100490000F900F900F90CF91DF910895DF93CF933E
:1004A000CDB7DEB760970FB6F894DEBF0FBECDBFF5
:1004B000F89488E190E02EE00FB6F894A89581BDFD
:1004C0000FBE21BD2CD3A1E3B0E0E1E3F0E08081D9
:1004D00088608C938AEF8F876DC080E090E0A0E801
:1004E000BFE38B879C87AD87BE876B857C858D85B9
:1004F0009E8520E030E84BE355E407D7DC01CB01D3
:100500008F839887A987BA876F81788589859A852F
:1005100020E030E040E85FE343D888232CF481E01A
:1005200090E09E838D833BC06F81788589859A8515
:1005300020E03FEF4FE757E4DDD718163CF56B8519
:100540007C858D859E8520E030E040E251E4DDD65B
:10055000DC01CB01BC01CD0114D5DC01CB019E83B4
:100560008D830FC08CE291E09C838B838B819C8177
:100570000197F1F79C838B838D819E8101979E83E8
:100580008D838D819E81009769F713C06F81788577
:1005900089859A85F6D4DC01CB019E838D838D817C
:1005A0009E819A83898389819A810197F1F79A8341
:1005B0008983A8958F85888B8889882311F081E0AD
:1005C000888B88899F8591509F87882309F085CFE4
:1005D00009D4A1E3B0E0E1E3F0E08081877F8C9370
:1005E0007894D2D0A8950FD4FCCFDF93CF9300D0CE
:1005F00000D00F92CDB7DEB79C838B838B819C811B
:100600009A83898386E790E0909393018093920187
:10061000E981FA818081882F90E080769070803225
:10062000910581F4E981FA818181813019F48FEF9C
:100630008D8309C0E981FA818181893019F48FEFB6
:100640008D8301C01D828D810F900F900F900F90B0
:100650000F90CF91DF910895DF93CF9300D00F9249
:10066000CDB7DEB79A8389836B8389819A816B8149
:1006700053D48B810F900F900F90CF91DF910895FD
:10068000DF93CF9300D00F92CDB7DEB79A838983E3
:100690006B8389819A816B81E6D381E00F900F9003
:1006A0000F90CF91DF910895DF93CF93CDB7DEB751
:1006B0002A970FB6F894DEBF0FBECDBF9987888703
:1006C0006A878A85882309F455C080917E00882333
:1006D00034F4888599856A85BFDF8A874BC08A850F
:1006E0008F8380919201909193019E838D8380915D
:1006F0007E00882F90E0807490700097F9F08D81D3
:100700009E819B838A83EA81FB818491898389818D
:100710008C83E885F9858C8180838885998501960D
:10072000998788878D819E8101969E838D838F8195
:1007300081508F838F81882311F716C0ED81FE8150
:100740008081E885F98580838885998501969987D8
:1007500088878D819E8101969E838D838F818150B4
:100760008F838F81882351F78D819E819093930190
:10077000809392018A852A960FB6F894DEBF0FBE49
:10078000CDBFCF91DF910895DF93CF9300D00F922B
:10079000CDB7DEB78091940183508B838B81882302
:1007A0007CF080919101282F30E08CE090E0821B5A
:1007B000930B88569E4F2B81622F2DD0109294015F
:1007C00080916B00882F90E080719070009729F0E5
:1007D00080916C008F3F09F053D184E18A830BC074
:1007E000E0E3F0E080818C7089838981882359F46B
:1007F0008A8181508A838A81882391F7109295019A
:1008000010928F017BD18A8180D10F900F900F9031
:10081000CF91DF910895DF93CF93CDB7DEB72897BF
:100820000FB6F894DEBF0FBECDBF9F838E8368875F
:100830008E819F819D838C83809190018D3209F000
:1008400040C08885883009F051C083EC80938401D2
:100850008AE580936B0010927E00EC81FD8180819F
:1008600080768A838A81882329F08E819F81BDDEEC
:100870008B8304C08C819D8142D08B838B818F3F81
:1008800069F4EC81FD818081882324F4EC81FD8171
:1008900086818B8380E880937E000FC0EC81FD8190
:1008A0008781882351F4EC81FD8196818B81981793
:1008B00020F4EC81FD8186818B838B8180936C0099
:1008C00015C080917E0088238CF48E819F8168857D
:1008D000D7DE898389818F3F21F48EE180936B007D
:1008E00005C08981882311F010926C0028960FB6FC
:1008F000F894DEBF0FBECDBFCF91DF910895DF9397
:10090000CF93CDB7DEB728970FB6F894DEBF0FBEF2
:10091000CDBF98878F831E828DE891E09D838C8365
:10092000EF81F88582818B83EC81FD811082EF81DC
:10093000F88581818A838A81882369F4EF81F8852B
:1009400080818F7189838C819D81FC013196108219
:1009500082E08E8326C08A81853021F48B8180934A
:1009600095011FC08A81863029F48F81988529D00E
:100970008E831DC08A81883039F487E991E09D8398
:100980008C8381E08E830DC08A81893029F48B812C
:1009900080939701B3D005C08A818A3011F481E039
:1009A0008E838C819D8190939301809392018E819F
:1009B00028960FB6F894DEBF0FBECDBFCF91DF9162
:1009C0000895DF93CF9300D000D000D0CDB7DEB72D
:1009D0009E838D831C8280E48B83ED81FE818381E5
:1009E0008A838A81813049F482E18C838CE590E0AE
:1009F000909393018093920136C08A81823049F4AA
:100A000082E18C838EE690E0909393018093920133
:100A10002AC08A81833039F5ED81FE818281898304
:100A20008981882349F484E08C8386E290E0909366
:100A300093018093920117C08981813049F48AE142
:100A40008C838AE290E090939301809392010BC093
:100A50008981823041F488E18C8384E490E0909332
:100A60009301809392018B8180937E008C812696E6
:100A70000FB6F894DEBF0FBECDBFCF91DF910895C2
:100A8000DF93CF9300D0CDB7DEB780916C008A831F
:100A90008A81893010F088E08A8390916C008A8185
:100AA000292F281B822F80936C009091840188E865
:100AB00089278093840185E891E06A81F5DD898347
:100AC0008981893070F485E891E069815AD0898103
:100AD0008C5F898389818C3048F48FEF80936C0020
:100AE00005C08EE189838FEF80936C0089818093AC
:100AF0006B000F900F90CF91DF910895DF93CF930C
:100B0000CDB7DEB7CF91DF910895DF93CF930F92EA
:100B1000CDB7DEB789830F90CF91DF910895DF9332
:100B2000CF93CDB7DEB7A5E5B0E0E5E5F0E0808195
:100B300082608C93ABE5B0E0EBE5F0E0808180640F
:100B40008C9303D0CF91DF910895DF93CF93CDB7EE
:100B5000DEB7CF91DF910895A82FB92F80E090E004
:100B600041E050EA609530E009C02D9182279795C9
:100B7000879510F084279527305EC8F36F5FA8F340
:100B80000895EADF8D939D930895CF93CFB7CF93C8
:100B9000C395839BE9F7839B09C0839B07C0839B15
:100BA00005C0839B03C0839B01C0A1C0DF93C0919C
:100BB0009101DD27C856DE4F839B02C0DF91EBCF4A
:100BC0002F930F931F9300B32FEF03FB20F94F9345
:100BD0003F9310B34FEF012703FB21F93BE031C0F6
:100BE0004E7F012F10B3216028C0102F4D7F22604F
:100BF000000000B329C04B7F2460012F000010B318
:100C00002BC010B3477F28602AC04F7E00B32061FD
:100C10002CC04F7D10B320622FC04F7B00B32064E7
:100C200032C0422700B349934FEF0000102713FB57
:100C300020F910B31C70C9F1297F91F2012703FB41
:100C400021F900B3237F89F2315058F1102713FBAB
:100C500022F910B3277E79F2012703FB23F92F7CB9
:100C600081F200B3102713FB24F92F7971F200C031
:100C700010B3012703FB25F92F7359F200C000B30D
:100C8000102713FB26F9223040F200C010B30127D1
:100C900003FB27F9243028F64F77206810B30000B3
:100CA000F9CF10E41ABF002717C03B503195C31B82
:100CB000D04010E41ABF0881033CE9F00B34D9F0AE
:100CC00020918F011981110F1213EDCF093641F1D7
:100CD0000D3211F0013E39F7009396013F914F918B
:100CE0001F910F912F91DF91CAB7C6FD51CFCF91C0
:100CF000CFBFCF91189520919601222379F31091BF
:100D00009401112311F5343012F1309394012093A2
:100D10009001109191013BE0311B3093910117C07C
:100D20000091940101308CF40AE530916B0034FDA0
:100D300010C000936B00C4E8D1E00FC02795A8F461
:100D40005150A9F4220F0000F9CF4AE503C042ED4B
:100D500001C0432FC4E1D0E032E011B31C60939A8C
:100D600011BB02B320E41CE05F93012756E002BBF5
:100D7000279520F4515021F4220FF9CF012756E096
:100D800000003B5A02BBD0F2279528F4515029F4B9
:100D9000220F0000F9CF012756E0279502BB20F46F
:100DA000515021F4220FF9CF012756E02991332326
:100DB00002BB21F6037F10919501110FC651D0405F
:100DC00002BB11F010938F0110E41ABF086011B339
:100DD000137F402F437F5F9100C000C002BB11BB57
:100DE00042BB7CCFDF93CF93CDB7DEB7E3E5F0E036
:100DF0001082E2E5F0E01082E3E5F0E085E0808338
:100E0000CF91DF910895DF93CF93CDB7DEB7E2E5C1
:100E1000F0E08081843698F0809182009091830088
:100E2000019690938300809382008091820090913C
:100E3000830022E08935920708F004D0D3DFCF91F8
:100E4000DF910895DF93CF93CDB7DEB71092830083
:100E50001092820010927F00109280001092810008
:100E6000CF91DF910895DF93CF9300D000D0CDB71D
:100E7000DEB79B838A836C8310928300109282007A
:100E8000198280917F00882341F4EA81FB8180816F
:100E900080937F0089818F5F898380917F00882381
:100EA00051F124C080918000482F50E08981282F83
:100EB00030E08A819B81FC01E20FF31F8081FA01FF
:100EC000E255FE4F808380918000882F90E001964C
:100ED00020E230E0B90186D58093800080917F00C8
:100EE000815080937F0089818F5F898399818C8174
:100EF0009817C0F20AC0A6DF8A819B81FC01319657
:100F000080812EEA31E0B901D7D80F900F900F9071
:100F10000F90CF91DF910895DF93CF9300D000D051
:100F2000CDB7DEB79B838A836C8319821FC089810A
:100F3000282F30E08A819B81DC01A20FB31F8091B2
:100F40008100882F90E0FC01E255FE4F80818C9358
:100F500080918100882F90E0019620E230E0B90175
:100F600041D58093810089818F5F898399818C81AC
:100F70009817E8F20F900F900F900F90CF91DF919C
:100F80000895EF92FF920F931F937B018C0120E055
:100F900030E040E05FE4D9D288237CF0C801B7019B
:100FA00020E030E040E05FE45ED125D39B01AC015E
:100FB000205030404040504805C0C801B7011BD305
:100FC0009B01AC01B901CA011F910F91FF90EF90F5
:100FD0000895A0E0B0E0EEEEF7E02BC5DC012B01B8
:100FE000FA019C91923008F439C1EB01888182307A
:100FF00008F433C1943069F4843009F02FC111969C
:101000009C9111978981981709F428C1ADE6B0E049
:1010100025C1843009F421C18230A9F4923009F04D
:101020001DC19A01AD0188E0EA010990AE01E90114
:1010300009929E018150C1F7E201898111969C912C
:101040008923818308C1923009F407C112962D903B
:101050003C901397EB018A819B811496AD90BD90D3
:10106000CD90DC901797EC80FD800E811F8191015F
:10107000281B390BB90137FF04C066277727621B8D
:10108000730B603271050CF061C0121613066CF51B
:1010900037014801062E04C096948794779467948C
:1010A0000A94D2F721E030E040E050E004C0220F83
:1010B000331F441F551F6A95D2F7215030404040DE
:1010C00050402E213F214023512321153105410558
:1010D000510521F021E030E040E050E079018A0143
:1010E000E628F728082919293CC0232BD1F1260E20
:1010F000371E35014601062E04C0969487947794D6
:1011000067940A94D2F721E030E040E050E004C058
:10111000220F331F441F551F6A95D2F721503040CC
:10112000404050402A213B214C215D2121153105B1
:101130004105510521F021E030E040E050E0590147
:101140006A01A628B728C828D9280BC0821593059C
:101150002CF01C01AA24BB24650103C0EE24FF244B
:10116000870111969C91D20111968C91981709F4E0
:1011700045C0992339F0A80197012A193B094C0968
:101180005D0906C0A60195012E193F09400B510BC0
:1011900057FD08C01182338222822483358346831F
:1011A00057831DC081E0818333822282882799275B
:1011B000DC01821B930BA40BB50B84839583A68360
:1011C000B7830DC0220F331F441F551F248335835F
:1011D00046835783828193810197938382832481FD
:1011E000358146815781DA01C9010197A109B10909
:1011F0008F5F9F4FAF4FBF4328F30BC09183338264
:101200002282EA0CFB1C0C1D1D1DE482F582068364
:10121000178383E08083248135814681578157FF7E
:101220001AC0C901AA2797FDA095BA2F81709070A6
:10123000A070B0705695479537952795822B932BC4
:10124000A42BB52B84839583A683B7838281938156
:10125000019693838283DF0101C0D201CD01CDB716
:10126000DEB7E2E102C4A0E2B0E0E8E3F9E0EDC3FA
:1012700069837A838B839C832D833E834F83588736
:10128000E9E0EE2EF12CEC0EFD1ECE010196B70129
:10129000D8D28E010F5E1F4FCE010596B801D1D274
:1012A0008A8991E089278A8BC701B801AE01475E20
:1012B0005F4F8FDEF1D1A096E6E0E3C3A0E2B0E09D
:1012C000E3E6F9E0C2C369837A838B839C832D8331
:1012D0003E834F835887F9E0EF2EF12CEC0EFD1E74
:1012E000CE010196B701ADD28E010F5E1F4FCE0128
:1012F0000596B801A6D2C701B801AE01475E5F4F9F
:1013000068DECAD1A096E6E0BCC3A0E2B0E0EAE89D
:10131000F9E08FC369837A838B839C832D833E831B
:101320004F835887CE010196BE01675F7F4F89D2F8
:10133000CE010596BE016F5E7F4F83D299859230B4
:1013400088F089898230C8F0943019F4823051F4E1
:1013500004C0843029F4923081F48DE690E0C6C058
:10136000923049F420E09A858A89981321E02A87EF
:10137000CE010996BBC0823049F420E09A858A8963
:10138000981321E02A8BCE014196B0C02D843E8473
:101390004F8458886D887E888F88988CEE24FF242F
:1013A0008701AA24BB24650140E050E060E070E0C2
:1013B000E0E0F0E0C10181709070892BE9F0E60C6B
:1013C000F71C081D191D9A01AB012A0D3B1D4C1D70
:1013D0005D1D80E090E0A0E0B0E0E614F7040805B1
:1013E000190520F481E090E0A0E0B0E0BA01A90185
:1013F000480F591F6A1F7B1FAA0CBB1CCC1CDD1C8D
:1014000097FE08C081E090E0A0E0B0E0A82AB92AE9
:10141000CA2ADB2A3196E032F10549F0660C771CC6
:10142000881C991C5694479437942794C3CFFA8507
:10143000EA892B893C898B859C85280F391F2E5F73
:101440003F4F17C0CA0181709070892B61F01695CB
:101450000795F794E79480E090E0A0E0B0E8E82AF0
:10146000F92A0A2B1B2B76956795579547952F5F81
:101470003F4F77FDE7CF0CC0440F551F661F771F06
:1014800017FD4160EE0CFF1C001F111F2150304062
:10149000403090E0590790E0690790E4790760F3E5
:1014A0002B8F3C8FDB01CA018F779070A070B070DA
:1014B00080349105A105B10561F447FD0AC0E1142E
:1014C000F1040105110529F0405C5F4F6F4F7F4F1C
:1014D00040781A8EFE1711F081E08A8F4D8F5E8F53
:1014E0006F8F78A383E0898FCE014996D5D0A096DF
:1014F000E2E1BBC2A8E1B0E0EFE7FAE0A6C269838F
:101500007A838B839C832D833E834F83588789E026
:10151000E82EF12CEC0EFD1ECE010196B70191D103
:101520008E010F5E1F4FCE010596B8018AD18985C5
:10153000823038F08989823020F0C701B801F9D1B2
:1015400001C08FEF6896E6E09CC2A8E1B0E0EAEA4D
:10155000FAE07BC269837A838B839C832D833E83ED
:101560004F83588789E0E82EF12CEC0EFD1ECE014A
:101570000196B70166D18E010F5E1F4FCE01059611
:10158000B8015FD18985823038F08989823020F0B6
:10159000C701B801CED101C08FEF6896E6E071C2F5
:1015A000A8E1B0E0E5EDFAE050C269837A838B836D
:1015B0009C832D833E834F83588789E0E82EF12C4E
:1015C000EC0EFD1ECE010196B7013BD18E010F5EE0
:1015D0001F4FCE010596B80134D18985823038F08D
:1015E0008989823020F0C701B801A3D101C081E010
:1015F0006896E6E046C2ACE0B0E0E0E0FBE029C27D
:1016000069837A838B839C83CE010196BE016B5FD5
:101610007F4F17D18D81823061F1823050F184305B
:1016200021F48E81882351F12EC02F81388537FD1A
:1016300020C06E812F3131051CF06623F9F023C0E4
:101640008EE190E0821B930B29853A854B855C8562
:1016500004C056954795379527958A95D2F7662306
:10166000B1F050954095309521953F4F4F4F5F4FCA
:101670000EC020E030E040E050E009C02FEF3FEF27
:101680004FEF5FE704C020E030E040E050E8B901F0
:10169000CA012C96E2E0F9C1DF92EF92FF920F931C
:1016A0001F93FC01E480F58006811781D180808141
:1016B000823048F480E090E0A0E1B0E0E82AF92A26
:1016C0000A2B1B2BA5C0843009F49FC0823021F463
:1016D000EE24FF24870105C0E114F1040105110582
:1016E00019F4E0E0F0E096C0628173819FEF623808
:1016F00079070CF05BC022E83FEF261B370B2A313D
:1017000031052CF020E030E040E050E02AC0B80184
:10171000A701022E04C076956795579547950A94C0
:10172000D2F781E090E0A0E0B0E004C0880F991FFC
:10173000AA1FBB1F2A95D2F70197A109B1098E21D3
:101740009F21A023B1230097A105B10521F081E0DD
:1017500090E0A0E0B0E09A01AB01282B392B4A2B96
:101760005B2BDA01C9018F779070A070B070803464
:101770009105A105B10539F427FF09C0205C3F4F51
:101780004F4F5F4F04C0215C3F4F4F4F5F4FE0E032
:10179000F0E02030A0E03A07A0E04A07A0E45A07B2
:1017A00010F0E1E0F0E079018A0127C060387105AE
:1017B00064F5FB01E158FF4FD801C7018F779070A6
:1017C000A070B07080349105A105B10539F4E7FE31
:1017D0000DC080E490E0A0E0B0E004C08FE390E0B2
:1017E000A0E0B0E0E80EF91E0A1F1B1F17FF05C09E
:1017F00016950795F794E794319687E01695079527
:10180000F794E7948A95D1F705C0EE24FF24870169
:10181000EFEFF0E06E2F679566276795902F9F7723
:10182000D794DD24D7948E2F8695492F462B582F99
:101830005D29B701CA011F910F91FF90EF90DF90D2
:101840000895FC01DB01408151812281622F6F7775
:1018500070E0221F2227221F9381892F880F822B5D
:10186000282F30E0991F9927991F11969C93119763
:1018700021153105A9F5411551056105710511F4D1
:1018800082E037C082E89FEF13969C938E93129765
:101890009A01AB0167E0220F331F441F551F6A9561
:1018A000D1F783E08C930DC0220F331F441F551FC7
:1018B00012968D919C911397019713969C938E93FA
:1018C0001297203080E0380780E0480780E458070E
:1018D00058F314962D933D934D935C931797089569
:1018E0002F3F310579F4411551056105710519F452
:1018F00084E08C93089564FF03C081E08C9312C050
:101900001C9210C02F57304013963C932E93129781
:1019100083E08C9387E0440F551F661F771F8A95DD
:10192000D1F7706414964D935D936D937C931797E4
:1019300008951F93DC01FB019C91923008F447C08D
:101940008081823008F443C0943051F411961C9188
:10195000843099F58181682F70E0611B71093FC067
:10196000843021F0923031F48230B9F181818823C2
:1019700089F12DC011961C9111978230F1F081816F
:101980001817D9F412962D913C9113978281938167
:101990008217930794F028173907BCF014968D919D
:1019A0009D910D90BC91A02D248135814681578158
:1019B000281739074A075B0718F4112341F00AC0BA
:1019C00082179307A407B50740F4112319F061E0CB
:1019D00070E005C06FEF7FEF02C060E070E0CB0108
:1019E0001F91089597FB092E07260AD077FD04D092
:1019F0000CD006D000201AF4709561957F4F0895A1
:101A0000F6F7909581959F4F0895AA1BBB1B51E156
:101A100007C0AA1FBB1FA617B70710F0A61BB70B5E
:101A2000881F991F5A95A9F780959095BC01CD0103
:101A300008952F923F924F925F926F927F928F9272
:101A40009F92AF92BF92CF92DF92EF92FF920F934D
:101A50001F93CF93DF93CDB7DEB7CA1BDB0B0FB657
:101A6000F894DEBF0FBECDBF09942A883988488814
:101A70005F846E847D848C849B84AA84B984C884AA
:101A8000DF80EE80FD800C811B81AA81B981CE0FA1
:101A9000D11D0FB6F894DEBF0FBECDBFED01089586
:041AA000F894FFCFE8
:101AA400302E302E31006D6F746F005AFF0000002D
:061AB4000000000000002C
:00000001FF
